:020000040800F2
:100000009019002095020008831A00083F18000884
:10001000811A0008FD0900080D1E000800000000FC
:10002000000000000000000000000000871A000827
:10003000FF09000800000000851A0008891A00085E
:10004000AF020008AF020008AF020008AF020008CC
:10005000AF020008AF020008AF020008AF020008BC
:10006000AF020008AF020008AF020008AF020008AC
:10007000AF020008AF020008AF020008AF0200089C
:10008000AF020008AF020008AF0200080000000045
:10009000000000000000000000000000AF020008A7
:1000A000AF020008AF020008AF020008AF0200086C
:1000B000AF020008AF020008AF020008AF0200085C
:1000C000AF020008AF020008AF020008AF0200084C
:1000D000AF020008011E0008AF0200080000000087
:1000E000AF020008AF020008AF02000800000000E5
:1000F000000000000000000000000000AF02000847
:1001000000000000AF020008AF020008AF020008C4
:1001100000000000000000000000000000000000DF
:10012000AF020008AF020008AF020008AF020008EB
:10013000AF02000800000000000000000000000006
:10014000000000000000000000000000AF020008F6
:10015000AF020008AF020008AF020008AF020008BB
:10016000AF020008AF02000800000000000000001D
:10017000000000000000000000000000000000007F
:1001800000000000AF0200080000000000000000B6
:10019000AF020008AF02000800F002F800F06AF8B1
:1001A0000AA090E8000C82448344AAF10107DA45D2
:1001B00001D100F05FF8AFF2090EBAE80F0013F0BA
:1001C000010F18BFFB1A43F0010318474C4300000E
:1001D0006C4300000A444FF0000C10F8013B13F090
:1001E000070408BF10F8014B1D1108BF10F8015B90
:1001F000641E05D010F8016B641E01F8016BF9D183
:1002000013F0080F1EBF10F8014BAD1C0C1B09D1D9
:100210006D1E58BF01F801CBFAD505E014F8016B4B
:1002200001F8016B6D1EF9D59142D6D370470000DD
:100230000023002400250026103A28BF78C1FBD8EF
:10024000520728BF30C148BF0B607047642900F0D7
:100250002381752900F02081782900F059817329C4
:1002600000F08983002070471FB503F00DFF1FBD0C
:1002700010B510BD00F08DFB1146FFF7F5FF03F040
:1002800091FA00F0ABFB03B4FFF7F2FF03BC00F000
:10029000AFFB00000948804709480047FEE7FEE73A
:1002A000FEE7FEE7FEE7FEE7FEE7FEE7FEE7FEE726
:1002B00004480549054A064B704700001D1B00080D
:1002C0009901000890090020901900209011002049
:1002D0009011002053EA020C00F069802DE9F04BE8
:1002E0004FF00006002B1FBFB3FA83F503FA05F4A5
:1002F00024FA05F65E4012BF1643B2FA82F502FAFE
:1003000005F4C5F120051EBF22FA05FC44EA0C04E1
:10031000203556EA044C4FEA144418BF641C4FF0D1
:1003200000084FF00009904271EB030C39D300290B
:1003300019BFB1FA81F701FA07F6B0FA80F700FAAF
:1003400007F6C7F120071EBF20FA07FC46EA0C0695
:100350002037B6FBF4FCA7EB0507103F07F01F0B97
:10036000CBF120060CFA0BFB2CFA06F644BFB34681
:100370000026202FA4BF5E464FF0000B5BEA060C60
:1003800008BF4FF0010B19EB0B09ABFB027C48EBEC
:100390000608C01B06FB02CC0BFB03CC71EB0C0167
:1003A000C1E70B46024641464846BDE8F08B13B50F
:1003B0004FF000004FF00001AFF30080BDE81C409B
:1003C000704700000FB41CB50C0007AA009001D0C4
:1003D0002044401E074B7B4469460190069800F07C
:1003E00098FA002C03D06946002000F0A5FA1CBC46
:1003F0005DF814FB6905000070B504468569006866
:10040000C10601D5302600E02026C00707D070BD08
:10041000D4E9012130469047206A401C20626D1EBD
:10042000F6D570BD70B5044685690078C00707D160
:1004300070BDD4E9012120209047206A401C206231
:100440006D1EF6D570BD70B50C460546012A05D067
:100450002878800600D5EA69002302E0012305E040
:100460005B1C934202D2E05C0028F9D1A869E6182F
:10047000C01AA861286A184428622846FFF7BCFF02
:1004800004E0D5E9012114F8010B9047B442F8D3F8
:100490002846FFF7C7FF70BD2DE9F041064600244E
:1004A00010687529314616A510D0AFF300800028DA
:1004B00002DA404213A507E031688A0701D512A588
:1004C00002E0490704D511A5012401E0AFF3008043
:1004D00000210A2206F1240709E0B0FBF2FCB0FB80
:1004E000F2F302FB1C00303078541846491C0028F7
:1004F000F3D123462A463046BDE8F04100F0AAB9C0
:10050000000000002D0000002B0000002000000073
:1005100070B504460D4621461068AFF3008021886F
:10052000090502D50F4A7A4402E00E4A7A440E3297
:10053000002104F1240305E000F00F060009965D98
:100540005E54491C0028F7D120780023000704D509
:10055000702D02D009B1022311322046BDE870404F
:1005600000F078B9F63E00002DE9F05F89460446B8
:100570004FF0000ADFF874B1FB44C0F820A0204619
:10058000E1688847002874D0252806D0D4E90121E5
:100590009047206A401C2062F1E700265F46204613
:1005A000E16888472028054607DB312D05D27819F8
:1005B00010F8200C08B10643F1E7B00701D526F08A
:1005C0000406C4F81CA00027C4F818A02A2D09D0DE
:1005D000284601F077FE38B304EB8708303DC8F8B1
:1005E000185019E059F8041B204604EB870291616A
:1005F000E1688847012F054618D1E069002820DA14
:1006000026F020061DE0D8F8180000EB800005EB6E
:1006100040003038C8F818002046E1688847054691
:1006200001F050FE0028EED1012F0AD02E2D08D166
:100630002046E16888477F1C0546022F46F02006C9
:10064000C4DBA069002803DA404246F00106A0613D
:10065000F00701D026F010066C2D0BD0682D09D0C4
:100660004C2D39D06A2D35D0742D35D07A2D33D01C
:1006700016E038E0E1682F4620468847B842054634
:1006800009D16C2F26D04FF48060E16806432046E4
:100690008847054604E06C2F1AD04FF4807006435B
:1006A0000DB3A5F14100192802D8203546F40066A3
:1006B0004A462946204626604E46FFF7C7FD80B1D0
:1006C00001280BD0F61D26F0070000F1080956E7B7
:1006D0004020E4E78020D8E70020D6E706F10409AF
:1006E0004DE7284652E7206ABDE8F09FCC3E000067
:1006F00040EA010310B59B070FD1042A0DD310C89F
:1007000008C9121F9C42F8D020BA19BA884201D9F0
:10071000012010BD4FF0FF3010BD1AB1D30703D038
:10072000521C07E0002010BD10F8013B11F8014BEE
:100730001B1B07D110F8013B11F8014B1B1B01D10A
:10074000921EF1D1184610BD10B5431C02E010F8FE
:10075000011B71B18107FAD14FF0013202C88C1A26
:100760008C4314EAC211F9D0C01A0A0603D0C01E85
:1007700010BDC01A10BD0A0401D0801E10BD0902B0
:10078000FCD0401E10BD10B5203AC0F00B80B1E87F
:100790001850203AA0E81850B1E81850A0E81850B6
:1007A000BFF4F5AF5FEA027C24BFB1E81850A0E8BF
:1007B000185044BF18C918C0BDE810405FEA827CD9
:1007C00024BF51F8043B40F8043B08BF7047D207F0
:1007D00028BF31F8023B48BF11F8012B28BF20F891
:1007E000023B48BF00F8012B70474FF0000200B5F4
:1007F000134694469646203922BFA0E80C50A0E844
:100800000C50B1F12001BFF4F7AF090728BFA0E8F1
:100810000C5048BF0CC05DF804EB890028BF40F8BD
:10082000042B08BF704748BF20F8022B11F0804FFF
:1008300018BF00F8012B704770477047704710B51C
:1008400000F0A2F8006810BD10B5044600F09CF856
:10085000046010BD2DE9F0470D46994692460446C6
:1008600000F124080168880604D5E06921F0100130
:10087000216000E00120A84201DD471B00E00027C5
:10088000A1697A1902EB0900081AA0612078C00654
:1008900002D42046FFF7B0FD002608E0D4E901218C
:1008A0001AF806009047206A401C761C20624E45CC
:1008B000F4DB2078C0060AD52046FFF79DFD06E050
:1008C000D4E9012130209047206A401C2062381E64
:1008D000A7F10107F4DC07E0D4E9012118F80500CD
:1008E0009047206A401C2062281EA5F10105F3DC18
:1008F0002046FFF797FD2078000602D50220BDE8CC
:10090000F0870120FBE7000001694A1C02610878BA
:10091000704700B58FB0CDE901310021059105493F
:100920007944CDE9031011466846FFF71DFE0FB06C
:1009300000BD0000E5FFFFFF0A6802F8010B0A6036
:100940007047D1E900239A4202D2531C0B60107009
:10095000704710B5436913B1AFF3008001E0FFF7B2
:1009600072FD012010BD127800F124010A700022EE
:100970004A700122EDE711684FF0FF32E9E700000D
:1009800000487047300900200048704730090020B7
:1009900070477546FFF7F4FFAE46050069465346BB
:1009A00020F00700854618B020B5FFF781FCBDE8B0
:1009B00020404FF000064FF000074FF000084FF0C6
:1009C000000B21F00701AC46ACE8C009ACE8C00957
:1009D000ACE8C009ACE8C0098D46704710B50446C4
:1009E000AFF300802046BDE81040FFF74CBC00008C
:1009F00001491820ABBEFEE726000200FEE7704763
:100A000010B5040002D0607910B106E0012010BDDD
:100A100000202071204600F005F8012060710020C0
:100A200010BD000008B500680649884208D1064894
:100A3000016841F480510160006800F4805000902A
:100A400008BD000000300240303802402DE9F0417E
:100A50000446876D00F046F9064694F835000025F7
:100A6000022806D08020606584F834500120BDE85B
:100A7000F0812068016821F0160101602068416959
:100A800021F080014161206C08B9A06C20B1206880
:100A9000016821F0080101602068016821F001016E
:100AA00001600CE000F01EF9801B052807D920200A
:100AB0006065032084F8350084F83450D7E7206857
:100AC0000068C007EED194F85C103F208840B86001
:100AD000012084F8350084F834500020C7E790F8EE
:100AE0003510022903D0802141650120704705217E
:100AF00080F835100068016821F0010101600020D4
:100B0000704700002DE9F84FDFF8B8A1002201245A
:100B100003254FF00F090AF1040BAAF1040E00BFE0
:100B20000B6804FA02F63340B34273D10F7907F031
:100B30000307012F01D0022F16D187684FEA420820
:100B400005FA08FC27EA0C07D1F80CC00CFA08FCDF
:100B50004CEA070CC0F808C04768B7430E79C6F3E3
:100B6000001696403E4346600E79F643B6070DD018
:100B7000C768560005FA06FC27EA0C07D1F808C03A
:100B80000CFA06FC4CEA070CC0F80CC00E7906F013
:100B90000306022E10D1D60800EB8608D8F8206094
:100BA00057074FEAD76C09FA0CF7BE430F6907FAEB
:100BB0000CF73743C8F8207006684FEA420C05FA74
:100BC0000CF7BE430F7907F0030707FA0CF737431A
:100BD00007604E6816F4403F6DD03B4E376847F4CF
:100BE00080473760366822F0030706F48046009697
:100BF000364E07EB060CDCF8086897073F0F09FA3A
:100C000007F826EA0806DFF8C880404503D14FF010
:100C100000081EE04FE0DFF8BC80404502D14FF0F5
:100C2000010816E0DFF8B080404502D14FF002081D
:100C30000FE0DFF8A880404502D14FF0030808E03C
:100C4000DFF89C80404502D14FF0040801E04FF0EE
:100C5000070808FA07F848EA0608CCF80888DAF81E
:100C600000605746D1F804C09E435FEACC2C00D503
:100C70001E433E60DBF800605F46D1F804C09E432F
:100C80005FEA8C2C00D51E433E60DEF8006077469C
:100C9000D1F804C09E435FEA8C3C00D51E433E6001
:100CA000084F083F3E68D1F804C09E435FEACC3C41
:100CB00000D51E433E60521C102AFFF431AFBDE840
:100CC000F88F0000083C01404438024000300140E9
:100CD000000002400004024000080240000C0240F4
:100CE000001002400148806870470000940700200F
:100CF000024881680278114481607047940700209F
:100D00000B4810B5016841F400710160016841F4BD
:100D100080610160016841F480710160032000F08E
:100D20006FF80F2000F006F800F024F8002010BD46
:100D3000003C024070B50D4D04464FF47A7128789E
:100D4000B1FBF0F00A490968B1FBF0F000F00CFBD0
:100D500048B9102C07D200222146501E00F030F86E
:100D600000206C6070BD012070BD00009407002061
:100D7000A00700200A4808B5016841F480410160DD
:100D8000006800F4804000900548001F016841F0B1
:100D900080510160006800F08050009008BD0000A4
:100DA00044380240002809DB00F01F020121914075
:100DB0004009800000F1E020C0F8001170470000F9
:100DC000F0B40E4B1B680C46C3F30223C3F10705B6
:100DD000042D00D90425191D072901D2002300E0A4
:100DE000DB1E012606FA05F1491E214099409E406E
:100DF000761E16403143F0BC01F01CB80CED00E04B
:100E0000064900F0070208684FF6FF03184040EA61
:100E10000220034A10430860704700000CED00E018
:100E20000000FA052DE9F0470E46050065D0DFF811
:100E30001481D8F80000F7B200F00700B04207D2E2
:100E400088F80070D8F8000000F00700B04254D1D4
:100E500028683D4C810712D5400703D5206840F42F
:100E6000E05020602878000703D5206840F46040F7
:100E700020602068A96820F0F000084320602878EE
:100E8000C0072DD0304968680839012812D00228DF
:100E900013D0032811D00968890700292DDA2168A9
:100EA00021F0030101432160FFF71CFF814641F25D
:100EB000883A0EE009688903EFE709688901ECE7E1
:100EC000FFF710FFA0EB0901514502D90320BDE84F
:100ED000F0872068696800F00C00B0EB810FEFD15B
:100EE000D8F80010404601F00701B14207D9077059
:100EF000006800F00700B04201D00120E7E7287841
:100F0000400705D52068E96820F4E05008432060D8
:100F10002878000706D52068296920F4604040EA57
:100F2000C100206000F038F82168084AC1F30311BD
:100F3000515CC8400649086006480068FFF7FAFEA1
:100F40000020C4E7003C024008380240A0430008EB
:100F5000A007002098070020044805490068096898
:100F6000044AC1F38221515CC8407047A0070020A9
:100F700008380240B0430008044805490068096881
:100F8000044AC1F34231515CC8407047A0070020B9
:100F900008380240B0430008154810B5006810F04A
:100FA0000C02144813D01449042A0FD0082A0ED179
:100FB0000F4C241F2268236802F03F025B0207D512
:100FC0002068C0F38810A0FB010106E0084610BDB0
:100FD0002168C1F38811A1FB00010023FFF77AF912
:100FE0002168C1F30141491C4900B0FBF1F010BD7B
:100FF000083802400024F40040787D012DE9F84FC4
:1010000004006ED02078DFF84C93C007A9F10405E6
:101010004AD009F104000168C1F38101012908D017
:101020000068C0F3810002280AD1D9F8000040020C
:1010300006D52868800337D560680028E1D033E002
:101040006068B0F5803F10D0B0F5A02F286810D0B0
:1010500020F480302860286820F4802028606068B0
:10106000A8B1FFF73FFE06460DE0286840F4803047
:10107000F4E740F480202860F7E700BFFFF732FE76
:10108000801B642873D828688003F7D50CE0FFF72D
:1010900029FE064605E000BFFFF724FE801B6428FA
:1010A000F0D828688003F7D42078DFF8AC82800776
:1010B0004FF0000A3ED5A748001D016811F00C0F43
:1010C00008D00068C0F3810002280BD1D9F80000D5
:1010D000400207D42868800716D5E068012800D1AF
:1010E00012E033E1E068B8B10120C8F80000FFF772
:1010F000F9FD064605E000BFFFF7F4FD801B02285E
:10110000C0D828688007F7D52868216920F0F80042
:1011100040EAC10028600DE0C8F800A0FFF7E2FD3A
:10112000064604E0FFF7DEFD801B02281FD8286872
:101130008007F7D42078000722D5864F8748616959
:10114000703771B101210160FFF7CCFD064604E064
:10115000FFF7C8FD801B022809D838688007F7D53B
:101160000EE0C0F800A0FFF7BDFD064605E082E0F6
:10117000FFF7B8FD801B02287DD838688007F7D4B8
:101180002078400768D5DFF8CCB100270BF13C0B85
:10119000DBF80000C0000BD4DBF8001041F08051F8
:1011A000CBF80010DBF80000012700F08050009021
:1011B0006B4E3068C00510D4306840F480703060E9
:1011C000FFF790FD009005E0FFF78CFD0099401AB5
:1011D000022850D83068C005F6D55E4EA0686C363F
:1011E00001280FD00528306810D020F001003060B1
:1011F000306820F004003060A068B8B1FFF772FDDD
:1012000000900FE0306840F00100F4E740F0040087
:101210003060F7E7FFF766FD0099411A41F2883028
:10122000814266D830688007F4D50EE0FFF75AFD9A
:10123000009007E0FFF756FD0099411A41F288300F
:10124000814256D830688007F4D42FB1DBF8001003
:1012500021F08051CBF80010A069C8B33D49091DA9
:101260000968C1F3810102294AD00228504607D0FB
:10127000C8F8600000E03CE0FFF734FD04463BE0C6
:101280004746C8F86000FFF72DFD064605E000BFA1
:10129000FFF728FD801B02282BD828688001F7D48F
:1012A000D4E907010843A16A2E4A490802EB01412B
:1012B000626A41EA8211084394F82C1040EA016105
:1012C000C9F8001001203866FFF70CFD044606E05F
:1012D0003EE000BFFFF706FD001B022809D8286882
:1012E0008001F7D534E000BFFFF7FCFC001B0228AB
:1012F00002D90320BDE8F88F28688001F4D427E0E4
:101300000128F7D0D9F80000E26900F48001914289
:101310001CD1226A00F03F01914217D147F6C071FB
:10132000626A0140B1EB821F10D1A26A4FF0FF3315
:1013300000F4403103EB5202B1EB024F06D194F8B6
:101340002C1000F07060B0EB016F01D00120D1E7EC
:101350000020CFE70438024000004742800E474299
:10136000007000400000FFFF10B5401EB0F1807F0C
:1013700001D3012010BD4FF0E02460610F21601700
:1013800000F058FD0020A06107202061002010BD62
:101390007047000000280AD000680549884206D13D
:1013A0000449002088800122034800F0B7B9704743
:1013B0000010014084070020FC070020F8B50168F8
:1013C00004460868CA684B6910F00F0F4FF000051B
:1013D00059D003F0010602F49077374365D0C10776
:1013E00005D0D10503D5616C41F00101616441076D
:1013F00005D5D90703D0616C41F002016164810712
:1014000005D5D90703D0616C41F00401616401077F
:1014100007D502F02001314303D0616C41F008018F
:101420006164616C00293AD0800604D5900602D52B
:10143000204600F0A9FB20684069616CC0F3801071
:10144000090700D460B3204600F077FB20684069AC
:10145000400621D52068143050E8001F21F04001DB
:1014600040E80012002AF5D1E06BA8B1724901658D
:10147000E06BFFF734FB002811D0E06B016D01B089
:10148000BDE8F040084783060FD593060DD52046EA
:10149000BDE8F84000F078BB2046FFF77BFFF8BDC1
:1014A0002046FFF777FF6564F8BD266B2023012EE9
:1014B0007ED1C6067CD5D6067AD5086848680090E5
:1014C00048694FF0020640064DD5E26B106840684F
:1014D0004FF480770004000C3AD0A18D814237D9B7
:1014E000E085D069B8422DD020680C3050E8001F4C
:1014F00021F4807140E80012002AF5D120681430F0
:1015000050E8001F21F0010140E80012002AF5D147
:101510002068143050E8001F21F0400140E800121C
:10152000002AF5D184F84230256320680C3050E859
:10153000001F21F0100140E80012002AF5D1E06BF5
:10154000FFF784FA6663A08DE18D401A81B206E050
:10155000A18D8142A8D1D069B842A5D16663204649
:10156000FFF716FFF8BDA08DE18D401A81B2E08D26
:101570000028F7D00029F5D020680C3050E8002F63
:1015800022F4907240E80027002FF5D12068143033
:1015900050E8002F22F0010240E80027002FF5D18B
:1015A00084F84230256320680C3050E8002F00E0BA
:1015B00006E022F0100240E80023002BF3D1CDE733
:1015C00005062BD5150629D594F841002128C9D147
:1015D000A068B0F5805F01D12069B0B1206A411CDC
:1015E0002162216800784860E08C401E0004000CF5
:1015F000E084B7D12068C16821F08001C160206813
:10160000C16841F04001C160F8BD206A0088C0F3A4
:1016100008004860206A801C2062E5E74006F3D598
:101620005006F1D5CA68204622F04002CA6084F80C
:10163000413000F003F9F8BD2D1B000870B504001F
:1016400004D094F84100002510B106E0012070BDDF
:1016500084F84050204600F023F8242084F841000C
:101660002068C16821F40051C160204600F0EEFA04
:101670002068016921F4904101612068416921F0ED
:101680002A0141612068C16841F40051C16065646C
:10169000202084F8410084F842006563002070BD7A
:1016A00010B586B0044614216846FFF79EF8184925
:1016B0002068884229D117480021026842F01002B0
:1016C0000260006800F010000590124814380268AB
:1016D00042F001020260006800F0010005904FF442
:1016E000C06000900220CDE9010103200390072093
:1016F000049069460848FFF705FA002211462520A4
:10170000FFF75EFB2520FFF74DFB06B010BD000084
:1017100000100140443802400000024090F842307E
:10172000202B01D00220704721B11AB1002303639E
:1017300000F012BB0120704730B4002823D00068AD
:10174000124988421FD1124801784278AAB9002272
:10175000104B0D290AD00A2908D084887F2C0BD27F
:10176000828899548188491C818006E0818821B152
:1017700081885A5401214170828030BC0122044981
:101780000548FFF7CBBF30BC704700000010014098
:1017900084070020B0080020FC0700202DE9F84352
:1017A000044690F84100984616460D46202802D07F
:1017B0000220BDE8F88385B17EB10020606421205D
:1017C00084F84100FFF78EFAA6848146E684A0687B
:1017D0002027B0F5805F02D003E00120E9E720690F
:1017E00010B12E4600250EE000260CE08021204698
:1017F00000F0CDFAA8B9C6B116F8010B216848600F
:10180000E08C401EE084E08C4B464FF00002CDF8A7
:1018100000800028EAD14FF04001204600F0B7FADE
:1018200040B184F841700320C3E735F8020BC0F3E0
:101830000800E3E784F841700020BAE77047FEE74C
:101840007CB51A481A4C00680090206808B1002046
:101850007CBD18480025016841F480510160006892
:101860002A4600F4805001906946114801F0DAF9E7
:1018700010F0FF0F4FF0FF3604D002F0FDFA3046B3
:1018800025607CBD0021206801F03EFA60600021E7
:10189000206801F043FAA060616811B108B1E56009
:1018A000D5E76FF00100E6607CBD000070430008E2
:1018B00074070020303802400148C06870470000BB
:1018C000740700202DE9F0410E4607004FF0000498
:1018D00004D01EB1274D286820B109E06FF009003F
:1018E000BDE8F081FFF7ACFF10B16FF00A00F7E739
:1018F000214A2249002002F1100300BF07EB800CAF
:101900009CED000A02EB800CDCED000A03EB800C7E
:1019100030EE600ADCED000A01EB800C401C80EE2A
:10192000201A04288CED001AE8DB68684160AA6878
:1019300001465660286801F0FBF9012807D02868A5
:1019400001F0C8F902F098FA6FF00B00C8E706EB57
:10195000800191ED000A06EB8401D1ED000AB4EE9E
:10196000E00AF1EE10FA00DD0446401C0328EEDB2D
:101970002046B5E77407002074430008A008002043
:1019800030B599B0FFF75CFF114D04000DD0002079
:10199000A87001220E490F48FFF7C0FE0EA002F00A
:1019A00061FBA87818B113A00BE00120F0E7FFF766
:1019B00083FF0090234617A2602101A8FEF702FDD5
:1019C00001A802F04FFB02F061FA19B030BD00002F
:1019D00084070020FC0700200D0A49524953204388
:1019E0007562652E414920554152542064656D6FE2
:1019F0000D0A000041495F494E49542C4F4B2C6958
:101A00006E7075743D342C6F75747075743D330D44
:101A10000A00000041495F494E49542C4641494C57
:101A20002C726573756C743D25642C6572726F72CF
:101A30003D30782530386C580D0A00000E4A10B53C
:101A40005078A0B0002814D072B600200B4B694625
:101A50001C5C0C5414F0FF0F03D0401C80B2802893
:101A6000F6D300208DF87F00507062B6084602F071
:101A7000A3F820B010BD000084070020B0080020AB
:101A8000FEE7FEE770477047FFF732B930B593B015
:101A900030216846FEF7A9FE14210CA8FEF7A5FE2A
:101AA0001C480024016841F080510160006800F08A
:101AB000805011901848016841F44041016000686D
:101AC000022500F440401190012003901020049062
:101AD000009506950820CDE907406420CDE9090569
:101AE00007200B906846FFF789FA08B172B6FEE747
:101AF0000F20CDE90C054FF48050CDE90E400321B5
:101B00000CA81094FFF78EF9002801D072B6FEE7FA
:101B100013B030BD403802400070004002480168F8
:101B200041F470010160704788ED00E010B5806BF2
:101B30000021C185FFF72EFC10BD01680C3151E872
:101B4000002F22F4907241E80023002BF5D10168A8
:101B5000143151E8002F22F0010241E80023002B4C
:101B6000F5D1016B012909D101680C3151E8002F31
:101B700022F0100241E80023002BF5D1202180F84B
:101B8000421000210163704708B590F842102229E5
:101B900001D0022008BD82684FF480539A4201D1DF
:101BA000016921B1816A9A421BD04AB10AE00268F8
:101BB000816A5268C2F308020A80816A891C08E0BF
:101BC000026972B10268526802F07F020A70816A8B
:101BD000491C8162C18D491E0904090CC18503D0CD
:101BE0001BE002685268F1E70168CA6822F020022F
:101BF000CA600168CA6822F48072CA6001684A69D2
:101C000022F001024A61202180F842100021416344
:101C1000026B012A03D0FFF78FFD002008BD01638E
:101C200001680C3151E8002F22F0100241E8002336
:101C3000002BF5D101680A68D20602D50A68496806
:101C40000091818DFFF7A4FBE7E7000070B5044623
:101C500000680169E26821F4405111430161216982
:101C6000A068E26908436169114308432168CA68B2
:101C700049F20C639A430243CA6020684169A26931
:101C800021F440711143416131492068884202D0FA
:101C90003049884202D1FFF76FF901E0FFF75CF9A4
:101CA000E2690023192164253226B2F5004F6268EB
:101CB00028D0A0FB0101930F9200FEF70BFB014619
:101CC000B0FBF5F06FF01802504301EB800006EB1B
:101CD0000010B0FBF5F000F0F002B1FBF5F002EB04
:101CE0000012B1FBF5F06FF01803584301EB8000D0
:101CF00006EB0010B0FBF5F000F00F002168104477
:101D0000886070BDA0FB010192185B41FEF7E2FA0A
:101D10000146B0FBF5F00201B1FBF5F06FF01803DE
:101D2000584301EB800006EBC000B0FBF5F000F07B
:101D3000F80002EB4002B1FBF5F0584301EB8000E4
:101D400006EBC000B0FBF5F000F00700D6E700009E
:101D5000001001400014014081628285C28500218B
:101D60004164222180F84210016921B10168CA68EA
:101D700042F48072CA6001684A6942F001024A6115
:101D80000068C16841F02001C160002070472DE962
:101D9000F843984617460D460446089E24E0701CFA
:101DA00022D0FEF79FFFA0EB0800B0421AD8CEB1B8
:101DB0002068C168490717D5802D15D0402D13D054
:101DC0000168C94309070FD40168002540680090E5
:101DD0002046FFF7B2FE0820606484F840500120DE
:101DE000BDE8F8830320FBE72068006835EA0000BF
:101DF00004D00020B842D2D00020F1E70120F9E75A
:101E00000148FFF7DBBA0000FC070020FEE74100B5
:101E1000080218BF04200A0E18BF40F001004FF05E
:101E20007F4232EA010108BF40F00200012808BFEA
:101E3000052070470907090E002804DB00F1E020A7
:101E400080F80014704700F00F0000F1E02080F8E7
:101E5000141D70479FED4B0A63E000BFD2ED003ABE
:101E600091ED004A92ED013A91ED011A04EE230A38
:101E7000D2ED021A91ED022AD2ED032AD1ED030A26
:101E800092ED044A01EE030AD1ED043A91ED053AD0
:101E900092ED071A02EE210A92ED052AD1ED061AFB
:101EA00000EEA20AD2ED062AD1ED070A03EE840A5B
:101EB00092ED084AD1ED083A03EE020A92ED093A92
:101EC00092ED0A2A01EEA20AD1ED092AD1ED0A1AF1
:101ED00000EE810A92ED0B1AD1ED0B0A03EE840A93
:101EE000D2ED0C3A91ED0C4A02EE830AD2ED0D2AA6
:101EF00091ED0D3A01EE820A92ED0E2AD1ED0F1A04
:101F000000EE810AD1ED0E0A92ED0F1A40314032F7
:101F1000103B04EE230A03EE220A00EE820A01EED1
:101F2000810A102B9AD21AE0D1ED000A92ED001A24
:101F300000EE810AD1ED010A92ED011A00EE810A4C
:101F4000D1ED020A92ED021A00EE810AD1ED030AE8
:101F500092ED031A103110321B1F00EE810A042B80
:101F6000E2D206E0F1EC010A5B1EB2EC011A00EECF
:101F7000810A002BF6D1D0ED000A30EE800A80ED08
:101F8000000A70470000000010B510EE104A4FF034
:101F900019406849002200EB44002DED028B884275
:101FA00057D8DFED650A14F0004F60EE200A14BF29
:101FB000BEEE001AB6EE001A71EE200AFDEEE00A3F
:101FC00010EE900A00EE900AF8EEE00A9FED5B1A20
:101FD00000EEC10A9FED5A1A00EEC10ADFED590A60
:101FE0009FED591A00EE201ADFED580A40EE010A63
:101FF0009FED571A574B00F0030100EE201A21EE17
:10200000000A7B4403EB8103D3ED000A524B7B446F
:1020100003EB810393ED001A504B41EE000A7B4421
:1020200003EB8101801091ED000A70EE800AEABB9B
:1020300000EE100AB8EEC01ADFED491A9FED490A0A
:10204000BDEC028B01EE210ABCEEC00A20EE200A94
:1020500010BD4FF0FF40A0431BD04FF0CE40B0EB7F
:10206000440F82BFB7EE000ABDEC028B10BD3E48A4
:10207000B0EB440F28BF012293D20220FEF7E4FB0D
:1020800014F0004F15D0BDEC028BBDE8104000F0FD
:102090007BB814F5000F02BF9FED340ABDEC028B34
:1020A00010BDBDEC028BBDE8104000E007E000F081
:1020B0005FB8BDEC028BBDE8104000F05DB800EBEE
:1020C000D07359104FF07E5202EBC15100EE101A3E
:1020D000A0EB630002EBC05060EE200A00EE100A95
:1020E00020EE208A18EE100A88B118EE100AB0F11E
:1020F000FF4F15D018EE100AFFF789FE042808BF1D
:1021000000F042F8B0EE480ABDEC028B10BD022090
:10211000FEF79AFBBDEC028BBDE8104000F034B82E
:102120000220FEF791FBBDEC028BBDE8104000F0F1
:1021300023B800000000501E3BAAB8400070313E9A
:10214000F4FD053712BB2A3D12BB2A3EFFFFFF3EBE
:10215000FFFF7F3F662400006A2400003A2400004D
:102160000000004B00007E4E0000A0850000000033
:1021700030EE000A704700009FED020A20EE000AD0
:1021800070470000000000709FED020A20EE000A78
:10219000704700000000001010B5416904468847F0
:1021A0002069A04200D1002010BD00002DE9F04FB1
:1021B000002699B00F4605463446B0464CE0A86864
:1021C000C4EBC4038946426802EB83020E92806826
:1021D00010AA00EBC40A2C480D9251F8082F006A8F
:1021E000120A62F31F200190D1F804B01C2105A847
:1021F000FEF7FBFAD9F81800006800F0B9FB05906B
:10220000D9F81800806806905FEA0A0009D0C0F883
:102210000080D9F80010416029B1498819B1012125
:1022200002E0404603E00021016001B90020079070
:10223000D9F818001C2205A9406809900198CDE939
:102240000A0B0D98FEF79FFA1C2210A90E98FEF7B4
:102250009AFA761CB6B2641C0DB1288800E0002002
:10226000A04205D9686818B150F824100029A6D1F9
:102270001EB1A8684068386001E0C7F8008019B056
:102280003046BDE8F08F0000B8430008D3ED000AE7
:102290009FED0B1A01EB820300EB8200001F1B1F56
:1022A0008B420BD393ED000AB4EEE00AF1EE10FA84
:1022B00001D8B0EE410A80ED000AEFE77047000058
:1022C0000000000030380A2801D2012070470020A9
:1022D00070470000F0B50546059C24F0010003EBB3
:1022E00080069FED460AE70856E001C9D3ED002AB3
:1022F000C0F3031C02EB8C0C9CED002A00F00F0CC9
:1023000002EB8C0C02EE220ADCED001A93ED012A9E
:10231000C0F3072C4FEA1C1C02EB8C0C01EE820A66
:102320009CED001AD3ED021AC0F3032C02EB8C0CC7
:10233000D3ED042A01EE210ADCED000A93ED031A25
:10234000C0F3074C4FEA1C1C02EB8C0C00EE810A18
:102350009CED002AC0F3034C02EB8C0CDCED001A60
:1023600002EE220A93ED052A4FEA107C02EB8C0C58
:10237000C0F303609CED001A01EE820AD3ED061A49
:1023800002EB8000D0ED000A01EE210A93ED071A5E
:1023900020337F1E00EE810A002FA6D116E000BF79
:1023A00011F8010B93ED001A070902EB870700F003
:1023B0000F00D7ED000A02EB800000EE810AD0ED9D
:1023C000000A93ED011A083300EE810AB342E7D305
:1023D000E0070AD011F8010B93ED001A000902EB97
:1023E0008000D0ED000A00EE810AD5ED000A084613
:1023F00030EE800A85ED000AF0BD0000000000000C
:10240000F0B50446059D9FED370AE8084FE040C946
:10241000D3ED002AF7B202EB8707401E97ED002AA2
:10242000C6F3072702EB870702EE220AD7ED001A50
:1024300093ED012AC6F3074702EB8707360E01EE3C
:10244000820A97ED001AD3ED021A02EB8606D3ED4D
:10245000042AD6ED000A01EE210A93ED031A40C9C1
:10246000F7B200EE810A02EB870797ED002AC6F368
:10247000072702EB870702EE220AD7ED001A93ED39
:10248000052AC6F3074702EB8707360E01EE820ADC
:1024900097ED001AD3ED061A02EB8606D6ED000A78
:1024A00001EE210A93ED071A203300EE810A00287D
:1024B000ADD105F007000AE011F8015B401E02EB08
:1024C0008505B3EC011AD5ED000A00EE810A00285B
:1024D000F2D1D4ED000A084630EE800A84ED000AFD
:1024E000F0BD00000000000070B505460C464888AD
:1024F0006988884202D9AAB1002070BD92B1002635
:102500000CE000BF6168C6EBC6006A6801EB8001A1
:1025100002EB80001C22FEF736F9761C6088B04280
:10252000F0D801E060686860608868802088288052
:10253000012070BD30B500B3F9B1F2B15268E2B11B
:102540000F4C1368A34203D00260012913D014E09A
:102550000023121D07E000BF52F82350A54204D00B
:1025600040F823505B1C8B42F6D38B4205D152F8C6
:102570002300A04201D1012030BD002030BD000069
:10258000DECAFAA170B50D46060014461AD0CCB1C9
:10259000104600F095FA00B16088A84212D10023DD
:1025A000042109E0C3EBC302606801EB820280589A
:1025B00020B146F823005B1CAB42F3D3AB4201D100
:1025C000012070BD002070BD0349884201D1012067
:1025D0007047002070470000DECAFAA12DE9FE4FC7
:1025E00092468946040003D0208E20B1656B03E03B
:1025F0000020BDE8FE8F0025002060832083207C22
:10260000C043800702D030221121DCE0B9F1000F75
:1026100061D0D5B32888C0B3D9F818000026D0F807
:10262000008056E0A868006800EB0610019052D0C8
:1026300058B3C6EBC600029009EB80000121009060
:1026400000F048FADBF81830596888421AD8009828
:10265000DBF80C208069D768D0F80CC0674511D131
:102660009768D0F808C067450CD15268406882422C
:1026700008D1186800F06DF90746584601F07EF859
:10268000874203D2182212219DE024E0DBF81800D3
:10269000006800F06DF9029920F07E4259F821009F
:1026A00020F07E40824201D01922ECE70098406879
:1026B00088B100988069006878B14146404500D2F1
:1026C00008468046DDE900105A4600F08FF8761C77
:1026D0002DB1288804E01722D5E72122D3E7002076
:1026E000B04206D9686820B150F826B0BBF1000F9F
:1026F00098D1BAF1000F74D0208E012806D9656BED
:102700000C3503D0288808B1002658E0182259E07B
:10271000A868006800EB061B3BD0BBF1000F38D067
:10272000C6EBC60001900AEB80000121009000F08A
:10273000D1F9D9F8183059688842E7D80098D9F803
:102740000C208069D768D0F80CC06745DED1976847
:10275000D0F808C06745D9D1526840688242D5D1C7
:10276000186800F0F6F80746484601F007F8874277
:10277000CCD3D9F81800006800F0FAF820F07E42B7
:1027800001985AF8200020F07E40824203D019229E
:1027900018E0172216E0009840680028F9D0009849
:1027A0008069006868B14146404500D208468046CD
:1027B0004A465846009900F019F8761C3DB1288821
:1027C00006E021221321204600F05AFC10E70020E9
:1027D000B04206D9686820B150F82690B9F1000FD0
:1027E00096D1A4F818804FF0010002E770B50446B6
:1027F0000E461546104600F0C1FF0146A060B069C4
:1028000000684843E060716861607268104420604D
:10281000A8690268920007D4D0E90223D21A1144B1
:102820008160A9696068C86070BD70B50646002502
:1028300021E0B068006800EB051488690268920026
:1028400005D58168A268606801F0C4FB08E0D0E9A2
:102850000223D21A63681A44826089696068C8607A
:10286000D4E90101084460602168884201D3E0682E
:10287000081A6D1C60600EB1308800E00020A8428C
:1028800006D97068002803D050F825100029D0D14F
:1028900070BD2DE9F0410646002529E0B168836945
:1028A000096801EB051419688900D4E901120DD5F6
:1028B000986801F08FFBD4E9010108446060216849
:1028C000884201D3E068081A606010E00A44626040
:1028D00021688A4201D3E2688A1A62608169D1E97B
:1028E0000237DB1B1A448A6080696168C1606D1C15
:1028F0000EB1308800E00020A84206D97068002898
:1029000003D050F825000028C8D1BDE8F0812DE99A
:10291000F04115461C460022C1B1570842F210731F
:102920004FEA3106E0FB03670A4630464FF00003EA
:102930003946FDF7CFFC6421B0FBF1F22A60B0FB11
:10294000F1F201FB12002060BDE8F0812A601A60FC
:10295000FAE759B1C0F3C6125143C91D21F007016E
:10296000C0F34150C140C91DC808704700207047DE
:1029700030B54021C0F34342022A19D03A4A20F030
:102980007E439C1A4D01934263D028DC374AA3EB67
:10299000020493425DD018DC402B5BD0403BB3F582
:1029A000802350D0802B3DD0B3F5806F52D134E0DE
:1029B000C0F3C051C905C0F3C61241EAC21100F00C
:1029C0007F02114341F4802144E0A4F54074F93CB6
:1029D00026D00F2C3AD0AC423CD125493AE0254BC9
:1029E000E21A9C4229D00CDC234AA21813D0B2F57B
:1029F000F83F1FD0214BD2181AD0B2F5607F29D1F1
:102A000012E0A2F54072F93A10D00F2A18D0AA426B
:102A100020D11B491EE01B491CE01449C91F19E0C5
:102A2000194917E0194915E0194913E0194911E04E
:102A300019490FE0184980390CE01549C91D09E012
:102A400014490F3106E01149803903E00E490F3176
:102A500000E0114600F080420A4300F000511143AB
:102A600000F00060084330BD400406004704040045
:102A70004010040007007E0000F483FF800FFEFF7B
:102A8000401084004010820040080400C000040090
:102A90004004840040088400C000840070B51446DF
:102AA0000D46064600F00CF840B17068C5EBC50154
:102AB00010EB810002D04460012070BD002070BD89
:102AC00028B1416819B1408808B101207047002041
:102AD0007047000010B502002AD0164B1068B3EB07
:102AE000C01F03D0144BB3EBC01F01D1012000E085
:102AF000002008429069406802D01F3020F01F007B
:102B00005369D9B2012900D000211C0A07E001292C
:102B100007D0936953F821305843491C1AB1234612
:102B200002E00123F8E700238B42F0DC002800DC00
:102B3000002010BD006000420060000208B509A13D
:102B40000968009148B101789DF80020914204D1B4
:102B500004226946FDF7CCFD08B1002008BD012024
:102B600008BD0000038404842DE9F041066C816BEC
:102B700004460025C163CEB1D9B10120626CB047D3
:102B80000CE00220626CB047E06BFFF705FB0746E4
:102B90000320626CE16BB0476D1CE763E16B0029B9
:102BA000EFD106E0FFF7F8FA6D1CE063E06B002858
:102BB000F8D12846BDE8F08103460020996B002932
:102BC00008D0CB600A69401C8A4203D0002A01D099
:102BD0001146F6E770472DE9F041846B002594B16A
:102BE000012600272079C00707D0216A204611B1AD
:102BF0008847304600E0384605442069A04202D0AC
:102C000008B10446EEE72846BDE8F0811CB5002374
:102C10000522CDE900230123014A00F0F7F81CBD8D
:102C2000A40400202DE9F0430F468FB01646054658
:102C30000021FFF7EBFF804610F0FF0F0AD1684636
:102C400000F034F818B100240DF10C090EE02868EA
:102C500000F040F80FB0BDE8F08300BF57F8242023
:102C600021464846FFF71AFF641CA4B21FB1BDF805
:102C70000E00A042F2D800246F4607E056F8242048
:102C80002146381DFFF70AFF641CA4B21EB1BDF82F
:102C90000600A042F2D86946286800F01DF818B96D
:102CA000286800F017F880464046D3E71FB5002893
:102CB0000CD00749D1E90023CDE90023D1E9022155
:102CC000CDE902216A4602A900F034F804B010BD33
:102CD000C440000800F0E8B82DE9F0410D46064672
:102CE00000F0F0F8041E0DD0294600F0C5FD07469F
:102CF0002946204600F090FD00EA0704304600F027
:102D00006DF92040BDE8F08110B90248024A026026
:102D100000F05AB8A40400200001C0A110B9024874
:102D2000024A026000F0B2B9A40400200001C0A170
:102D300000F07CB910B570B169B162B1074C0460A4
:102D4000D1E90041C0E90141D2E90012C0E9031212
:102D50000123184610BD002010BD0000DECAFAA1F4
:102D6000016810B1024A8A4300D000207047000079
:102D70000001C0A130B44AB140B139B1074C136869
:102D8000A34206D130BC0C32FFF7FCBB30BC0020A4
:102D9000704730BC1C32FFF7CDBB0000DECAFAA181
:102DA00030B44AB140B139B1064C1368A34206D1E0
:102DB00030BC121DFFF7E6BB30BC0020704730BCB2
:102DC000FFF7B8BBDECAFAA1F8B50E46FFF7C8FF99
:102DD00004000AD000270097208E00B1606B69467E
:102DE000FFF7E4F9050006D00BE01022114600F0D1
:102DF00047F90020F8BD18221121204600F040F9C3
:102E0000009706B135800098F8BD00002DE9F04F1D
:102E100089B00500DDE912104FF0000A564663F351
:102E20000706CDE9011361F30F261D4F9146544665
:102E300060F31746834618D0C5F8009000F071F98A
:102E4000B8B1B846BF8AC6F30721F0B2002200F03D
:102E50004EF90646C7F30721F8B2002200F047F901
:102E6000864208D0D8F804400EE0F86909B0BDE801
:102E7000F08F3C6808E00BA0006800906846FFF700
:102E80005DFE18B9D8F80840C5F800A0DDE90110CA
:102E90005A4600F02CF9C9F808002046E6E7000081
:102EA000B84300080384048410B5FFF759FF20B12C
:102EB000BDE810400C3000F02EB90148806910BD0B
:102EC000B84300082DE9F04F91B00C46FFF748FFDA
:102ED000050013D0B4B13DA12068FFF775FB0600D3
:102EE0004FF0000B11D020680190D4E90301CDE927
:102EF0000401D4E90101CDE9020143E0002011B051
:102F0000BDE8F08F112210215CE001212046D4F8A9
:102F100004A0FFF7DFFD804604F11C00D4F82090E8
:102F200001211090FFF7D6FD07461422294907A872
:102F3000FDF729FC0120B8F1000F02D0ADF8220006
:102F400002E0ADF822B0002409941FB1ADF82A00C8
:102F5000109802E0ADF82AB000200B90B9F1000FF4
:102F600002D10FB1132206E0BAF1000F05D1B8F17A
:102F7000000F02D01222102123E0142207A901A879
:102F8000FDF701FC14492868884212D186F001023D
:102F9000144602A905F12000FFF7A6FA68B12246FF
:102FA00004A905F12800FFF79FFA40B12846FFF772
:102FB00003FE032028612846A1E7122200E0132225
:102FC0001621284600F05CF898E70000696E6974E5
:102FD000000000000C4400080001C0A170B5FFF71C
:102FE000BFFE002807D0017C890705D410221121DB
:102FF00000F046F8002070BD0B4A0168914211D1E3
:103000000546FFF7E8FD286C60B1AC6B54B1D5E91B
:1030100010322146002098472069A04202D008B112
:103020000446F4E7012070BD0001C0A170B513464D
:103030000D46FFF795FE04461A462946FFF7CEFADD
:1030400000281CD0208E08B1656B00E00025012807
:1030500002D9666B0C360DE000260BE02846FFF720
:10306000E4FB2046FFF780FD3046FFF712FC608B43
:10307000401C6083608B218B8842EFD380B270BD8F
:10308000002802D00C3000F04EB87047F8B50E465C
:10309000FFF766FE040007D000270097208E012866
:1030A00008D9606B0C3006E010221146FFF7E8FFEC
:1030B0000020F8BD00206946FFF778F8050005D12B
:1030C000182211212046FFF7DBFF009706B135805B
:1030D0000098F8BD02460068010A012004E0536828
:1030E000491E53F8213058430029F8D17047000693
:1030F00040EA014040EA0220704710B5044600F063
:103100005FFF206801782C2901D0002010BD401CF1
:103110002060012010BD0022016802700260084694
:10312000704701207047037813F0FF0F01D0002093
:1031300070470170016862F31F2101600120704730
:103140002DE9F047806988B0018809B1426800E044
:103150000022526832B109B1426800E00022526890
:10316000146800E00024012902D942680C3200E012
:10317000002252684AB1012902D942680C3200E0AB
:1031800000225268D2F8008001E04FF000080229C6
:1031900002D94268183200E00022526842B1022986
:1031A00002D94268183200E000225268176800E035
:1031B000002702290BD9426812F1180F07D032F804
:1031C000183F012B03D9526812B1526800E0002267
:1031D000E368D8F80CC003295E68DCE90153DCF829
:1031E0000CC003FB0CF3D7F818C0DCF8007027F014
:1031F0007E4A02D94768243700E000277F685FB124
:10320000032902D94068243000E0002040680068AB
:1032100010B18069876800E00027D8F81800A1691C
:103220008068896812B19269946800E00024DCE942
:10323000022CDFF85080E1461AEB080C10D0BCF5E8
:103240009C0F15D0BCF5DC0F07D10097CDE90353D7
:10325000CDE901464B4600F063F808B0BDE8F087C1
:103260008DE85700CDE90553684600F00DF8F4E706
:103270000097CDE90353CDE901464B4600F0A6F88F
:10328000EBE70000C0EF7DFF2DE9F04F04462DED88
:10329000028B81B0D0E9005AD4E90501484305EB1F
:1032A000800934E060692E4605EB80089FED1B8A9B
:1032B000D4F810B0A7680DE08DED008A5B46524649
:1032C00039466846FEF7C6FD9DED000A07EB8B0701
:1032D000A6EC010A4645EFD3E06890B100200DE06E
:1032E000E16801EB800191ED000A05EB8001401CD3
:1032F000D1ED000A30EE200A81ED000A61698142B9
:10330000EED8216960690AEB810A05EB80054D451D
:10331000C8D301B0BDEC028BBDE8F08F0000000007
:103320002DE9FF4F04462DED028B83B08B46DDE97E
:103330001550DDE9128A684304EB8006DDF85090F1
:103340005FEA080005D040224146184600F042FEE0
:1033500033E0984631E000BF04EB85079FED1A8A01
:1033600007990DE08DED018A5B46424601A8CDF834
:103370000090FEF7AFFF9DED010A0146A4EC010AA3
:10338000BC42EFD30BEB890BBAF1000F15D0A4EBC5
:10339000850100200DE000BF01EB80020AEB8003F5
:1033A00092ED000AD3ED000A401C30EE200A82EDB7
:1033B000000AA842F0D301EB8504B442CCD303B099
:1033C000BDEC028BBDE8FF8F000000002DE9FF4F30
:1033D00004462DED028B83B08B46DDE91550DDE907
:1033E000128A684304EB8006DDF850905FEA08001B
:1033F00006D04FF480624146184600F0EBFD32E003
:10340000984630E004EB85079FED1A8A07990DE096
:103410008DED018A5B46424601A8CDF80090FEF78B
:10342000EFFF9DED010A0146A4EC010ABC42EFD377
:103430000BEB890BBAF1000F15D0A4EB850100202E
:103440000DE000BF01EB80020AEB800392ED000A61
:10345000D3ED000A401C30EE200A82ED000AA8429B
:10346000F0D301EB8504B442CCD303B0BDEC028BA6
:10347000BDE8FF8F00000000D3ED021A93ED000AB3
:1034800093ED011AF5EEC01A01EB8203F1EE10FA8A
:1034900000EB82002AD2B5EEC01AF1EE10FA11D07C
:1034A000001F1B1F8B4220D3D3ED000AF4EEC00A8D
:1034B000F1EE10FA03D870EEC00A60EE810AC0ED9A
:1034C000000AEDE79FED161A0BE000BFD3ED000AEE
:1034D000F4EEC00AF1EE10FA01D8F0EE410AC0EDA8
:1034E000000A001F1B1F8B42F0D27047001F1B1FDA
:1034F0008B42FAD3D3ED000AF4EEE10AF1EE10FAB2
:1035000009D8F4EEC00AF1EE10FA06D870EEC00A3F
:1035100060EE810A01E0F0EE610AC0ED000AE5E725
:10352000000000002DE9FC5FB2FBF3F20C9D824627
:10353000B2FBF5FB03FB05F0CDE9000589461C460F
:103540004FF0000815E04E465546002708E0234698
:1035500031462846019A00F011F82D1D361D7F1CBA
:10356000A742F4D3009808F1010809EB80090AEB9F
:10357000800AD845E7D3BDE8FC9F00002DE9F0475D
:1035800080462DED028B1E4615460F4691ED008AB2
:10359000DFED228A01200DE000FB06F107EB81013F
:1035A00091ED000AB4EEC80AF1EE10FA01D3B0EEC4
:1035B000408A401CA842EFD3002410E004FB06F927
:1035C00007EB890090ED000A30EE480AFEF7DCFCBC
:1035D00008EB890070EE288A80ED000A641CAC427A
:1035E000ECD3F5EEC08AF1EE10FA12D0F7EE000A35
:1035F000002080EEA80A0AE000FB06F108EB81013A
:10360000401CD1ED000A60EE800AC1ED000AA8421C
:10361000F2D3BDEC028BBDE8F08700000000000093
:1036200070B505468069018809B1426800E0002252
:10363000526832B109B1426800E000225268146851
:1036400000E00024012902D942680C3200E0002287
:10365000526842B1012902D940680C3000E00020D4
:103660004068066800E00026E86988B140680128E3
:1036700004F108002CD0FFF72DFD0246E8698368AD
:10368000A0698168B0698068BDE87040FFF7F4BE4A
:10369000B0698668A069856804F10800FFF71AFD23
:1036A00005EB800106EB8000DFED100A0BE000BFA8
:1036B00091ED000AB5EEC00AF1EE10FA01D8B0EEB5
:1036C000600A80ED000A001F091FA942F0D270BDF8
:1036D000FFF700FD0246E8698368A0698168B06968
:1036E0008068BDE87040FEF7D1BD0000000000001A
:1036F000F8B505468069018809B1426800E00022FA
:10370000526832B109B1426800E000225268146880
:1037100000E00024012902D942680C3200E00022B6
:10372000526842B1012902D940680C3000E0002003
:103730004068066800E0002604F10800FFF7CAFCB4
:103740000246B5F92000A168B0EB112F03DAE16859
:1037500051F8201000E001212369B0EB132F03DAA8
:10376000636953F8200000E0002083080091A069FD
:103770008168B0698068FFF7D5FEF8BD0146C06872
:103780004A698969C068D26809685043044A11408F
:10379000A1F58022C03A01D1C01DC00870470000C9
:1037A000FFFF7F0108B5FDF7ABFAFEF76FF915488B
:1037B0000024016841F0010101600068134900F034
:1037C00001000090104808600846FDF719F908B19B
:1037D00072B6FEE70F480E4901604FF4E131C0E9CF
:1037E00001140C21C460C0E904418461C461FDF787
:1037F00025FF08B172B6FEE7FEF7C2F8FEF71EF924
:10380000FCE7000030380240003002406C07002026
:1038100000100140FC07002010B504460A460121B3
:103820001448FFF7A7FAF0B11248124A00680832AC
:1038300000F110019160D160103210319160D160BF
:1038400010329160D16010329060D060103291607F
:10385000D16002F110018860C86010310C308860BE
:10386000C860012010BD132230212046FFF708FC5C
:10387000002010BDCC03002010B504460A460121EB
:103880002348FFF78DFAD0B32149743101F11002BA
:10389000086840F0804008601D4800688860C86083
:1038A000116841F08041116000F180019160D160A8
:1038B0001032116841F08041116000F1A001916067
:1038C000D1601032116841F08041116000F5D07173
:1038D0009160D1601032116841F08041116000F5B3
:1038E000E0719160D16002F1100100F508700A6882
:1038F000886042F080420A60C860012010BDFFE786
:10390000122230212046FFF7BBFB0020F6E7000023
:10391000D003002001B5684600F052FB0098007803
:1039200008B1002008BD012008BD00002DE9F041CC
:103930000F462DED028B0446012600259FED268AB9
:10394000DFED268A00F03CFB206801782D2902D0AB
:103950002B2902D003E04FF0FF36401C2060F2EE2E
:10396000040A0178303909290DD800EE101AB0EE9A
:10397000481A401CB8EEC00A01252060B0EE408A0B
:1039800001EE208AEDE701782E2915D1401CB0EE1A
:10399000680A20600BE000BF00EE900A491C012578
:1039A000F8EEE00A216000EEA88A68EE808A2168BD
:1039B000087830380928EFD965B100EE106A012087
:1039C000B8EEC00A20EE080A87ED000ABDEC028BB3
:1039D000BDE8F0810020F9E700000000CDCCCC3D2F
:1039E0002DE9F043D9B0894600213C4C55915691C0
:1039F0005791A178164681B155A9FDF763FF0500DF
:103A00004FF480780BD5FDF757FF00902B4634A27A
:103A100041460DA8FCF7D6FC59E03AA058E09DEDD0
:103A2000550A4EA94DA800F09DF89DED560A50A9E3
:103A30004FA800F097F89DED570A52A951A800F041
:103A400091F8374F86B34D4501D1012600E000269D
:103A5000A168491CA16016B1E068401CE06054AB4D
:103A600053AAE068FEF753FF0DF59E7C9CE80F001B
:103A70000DF1240C8CE80F00DDE94D23DDE9530145
:103A80000DF1140C8CE80F00D4E9021257F8250050
:103A90000296CDE90312CDE900504B46214A41463A
:103AA0000DA8FCF78FFC12E0FFE74FAC94E80F0085
:103AB00003AC84E80F00DDE94D1257F825002B46D2
:103AC0008DE8070018A241460DA8FCF77BFC0DA865
:103AD00000F0C8FA59B0BDE8F08300008407002068
:103AE0004552522C696E666572656E63653D25644C
:103AF0002C61695F6572726F723D30782530386C69
:103B0000580D0A004552522C4149206973206E6FAE
:103B10007420696E697469616C697A65640D0A0064
:103B2000944300088C440008505245442C636C6157
:103B300073733D25642C6E616D653D25732C70306B
:103B40003D25642E253034642C70313D25642E25AE
:103B50003034642C70323D25642E253034640D0AD7
:103B600000000000B5EEC00A10B5F1EE10FA02D266
:103B70009FED0F0A06E010EE102AB2F17E5F01DD24
:103B8000B7EE000A9FED0B1AF6EE000A42F2107330
:103B900040EE010ABDEEE00A10EE102A92FBF3F4AB
:103BA000046092FBF3F003FB1020086010BD0000DE
:103BB0000000000000401C462DE9F041A2B00028A2
:103BC00022D0017800291FD048291BD0682919D09C
:103BD0003F2917D0544C532919D0732917D00022EC
:103BE000522927D0722925D0401C4FF0FF3803AD51
:103BF000502923D0702921D0562943D0762941D08D
:103C00004AA08EE000F042F922B0BDE8F081D4E98C
:103C1000021021AB20AAFEF77AFEDDE92012E0684F
:103C20008DE807004BA2602108A8A368FCF7CAFB37
:103C300008A876E0A26053A0E26072E0079007A8AF
:103C4000FFF75BFAB0B1002405EB840107A8FFF78A
:103C50006DFE88B1032C03DA07A8FFF74EFA68B1AE
:103C6000641C042CF0DB0798FFF754FE40B10022DF
:103C7000414651E04AA054E051A052E057A050E024
:103C80005BA04EE0079007A8FFF737FA28B300269D
:103C900007A80124374600F093F9079801782D29E9
:103CA00002D02B2901D002E04446401C07906FF05F
:103CB0002F020178A1F13003092B08D806EB860307
:103CC00002EB4303CE18401C01270790F1E727B110
:103CD0007443032C03D34EA023E055A021E007A892
:103CE000FFF70BFAE0B1002605EB860107A8FFF706
:103CF0001DFE0028C0D0032E04DA07A8FFF7FDF947
:103D00000028BBD0761C042EEEDB0798FFF702FEDE
:103D10000028B5D00122214603A8FFF761FE73E712
:103D20004DA000F09FF96FE7840700204552522C08
:103D3000756E6B6E6F776E20636F6D6D616E642E46
:103D40002053656E64204820666F722068656C7031
:103D50002E0D0A00535441542C746F74616C3D2530
:103D60006C752C636F72726563743D256C752C6184
:103D700063633D256C752E2530326C7525250D0A43
:103D80000000000052455345542C746F74616C3D23
:103D9000302C636F72726563743D300D0A00000051
:103DA0004552522C666F726D61743B2075736520AD
:103DB000502C66312C66322C66332C66340D0A008A
:103DC0004552522C6E756D62657220706172736916
:103DD0006E67206661696C65640D0A004552522C5D
:103DE0006D697373696E6720636F6D6D610D0A0095
:103DF0004552522C65787472612063686172616308
:103E0000746572732061667465722066340D0A00F1
:103E10004552522C6C6162656C206D757374206222
:103E20006520302C2031206F7220320D0A000000F6
:103E30004552522C666F726D61743B20757365201C
:103E4000562C6C6162656C2C66312C66322C6633A4
:103E50002C66340D0A0000004552522C6D697373B4
:103E6000696E6720636F6D6D612061667465722095
:103E70006C6162656C0D0A000106090A41EA1020B6
:103E80000149C860704700007407002010B50AA0FF
:103E900000F0E8F80BA000F0E5F815A000F0E2F85B
:103EA00022A000F0DFF82DA000F0DCF8BDE8104003
:103EB00037A000F0D7B80000436F6D6D616E64737A
:103EC0003A0D0A002020502C66312C66322C6633C5
:103ED0002C6634202020202020202020202020207C
:103EE0002070726564696374206F6E6C790D0A00CE
:103EF0002020562C6C6162656C2C66312C66322C4D
:103F000066332C663420202020202020207072650B
:103F10006469637420616E642075706461746520E7
:103F200061636375726163790D0A0000202053207C
:103F30002020202020202020202020202020202081
:103F40002020202020202020202073686F772073DD
:103F50007461746973746963730D0A0020205220C0
:103F60002020202020202020202020202020202051
:103F700020202020202020202020726573657420BE
:103F8000737461746973746963730D0A00000000CF
:103F90004C6162656C733A20303D7365746F736178
:103FA0002C20313D7665727369636F6C6F722C20C3
:103FB000323D76697267696E6963610D0A000000BF
:103FC000016801E0491C01600A78202AFAD0092A18
:103FD000F8D07047F0B588420ED0002A0CD0831874
:103FE000814210D999420ED2114403E013F8012DF9
:103FF00001F8012D8342F9D8F0BD00BF10F8013B54
:1040000001F8013B521E8B0701D0002AF6D1170997
:1040100011E000BF50F8046B7F1E50F8045B50F8AD
:10402000084B50F8043C41F8046B41F8045B41F83C
:10403000084B41F8043C002FECD1C2F3810304E0AB
:1040400050F8044B41F8044B5B1E002BF8D102F0F2
:10405000030204E010F8013B01F8013B521E002A64
:10406000F8D1F0BD10B504000AD0FCF76DFB214675
:1040700082B2BDE810404FF0FF330248FDF78EBB1F
:1040800010BD0000FC0700204FF04070E1EE100A68
:104090007047000004000000B00100200400000090
:1040A000F40100200400000034020020040000009D
:1040B0007802002004000000B80200200400000084
:1040C000FC02002000000100340700200000010075
:1040D0005007002001000000400000000100000027
:1040E0000100000040040400000000000000000087
:1040F000000000004000000001040000000000007B
:10410000010000002C02000001000000010000007E
:104110004004044000000000000000000000000017
:104120002C0200000104000000000000000000005C
:10413000000000000000000000000000000000007F
:104140007301223F07F18A3F4CC2B0BFFC7C65BDC2
:10415000D9D5A43F4B1D9ABE396375BF75E2BCBE6D
:104160001D6603BDA390B4BE72F4693ED22BB73D69
:1041700035000940FD03693FBBB8F33E2A85383F4F
:10418000E0B594BF7557A53F5AEECBBF28FE6EBF72
:10419000B336CA3E3C8E1BBFAB53873F8388453E38
:1041A0007A0C0C3F1EB7133EB3ABD13EBB831DBF91
:1041B000343A31BEE5DA18BFEBE7D93EE927BA3F1A
:1041C000A86C943FD862B5BBAAAB7A3F7933DCBE0A
:1041D000A8A8103E10856EBE0FE9843FC3D00BBF68
:1041E000078AD43FB15272BE209B033E9484DD3EC9
:1041F00077EA823F222319BF3A341DBEE43DB1BDA8
:10420000A46BBBBF208690BF7168993E2F95F03F8D
:10421000E690BB3DC8E1883F36FCF3BE6BBEC03FB5
:1042200015C6453E060E59BE8A9304BFD5DB0EBEA9
:104230004824DBBE73F7EBBD7DAA463ECB96A8BDF6
:104240008AC8E3BE180D14C0188E103E28E8873FB8
:104250002F168FBF97916A3FA9C1833E78D0353F13
:10426000FD6B853FECAA0440CFB2333FB76A8EBFE7
:10427000C8DEADBFC53C243D8F86683FC58C17BFE7
:104280007D75AC3E85C0D63F59C18C3F794735BF5F
:1042900068CB5DBFCD33443FC328293FCCDAE3BEB2
:1042A0008922134097AA2B40C1C3FE3E6573CFBF3E
:1042B0007CED05C013BC14BFFD4D9F3F3F8193BFF4
:1042C000D2EAF3BDDBCD17BE44FE453FB020FABFB6
:1042D00046BB62BE3E66B0BEF76E863F300F28BF5B
:1042E0006C5B9E3EBEFF24BF6200B9BD4E2A38BE45
:1042F0004EE6253FD16A2E3F97B49A3FDC8A833D34
:10430000698E933FCD25C8BE9BE042BFACA08DBF58
:10431000078B42BF2D587ABF4CEA6EBF9F37D33E02
:1043200032FF1BBF660FCABFABA259BEC1582CBF1C
:10433000E578A63F7F12B13EF4DAF53F0D84613F88
:10434000943B5ABF0419D63F9AF0F7BE5529483F0F
:10435000C06F86BE1B002CBD146CFEBFB1E901C04E
:104360002FB60C3ECDBEDD3E0FA800BF0000000002
:1043700060080020EFEEBA40E5174340AE477140B9
:10438000713D9A3FD460563F75AFE43EE76CE13F24
:10439000376D423F044500080C450008F84400080A
:1043A00000000000000000000102030406070809E5
:1043B00000000000010203043010000001100000A2
:1043C000021000000A0100000102000001050000C7
:1043D000101000001010000001000000000000009C
:1043E00001000000000000000100000001000000CA
:1043F0004004040000000000000000000000000075
:10440000000000000104000000000000DECAFAA164
:10441000000000000000000000000000000000009C
:1044200030313233343536373839414243444546EA
:1044300040305800303132333435363738396162E4
:1044400063646566403078000400000800000000E6
:104450000000000200010000100000000000803F8A
:104460000030983F0000B53F0040D73F00000000FB
:10447000320A7E397F661E395B991F390000803F02
:10448000F037983FF304B53FFD44D73F56414C2CDD
:10449000747275653D25642C707265643D25642CCD
:1044A0006E616D653D25732C6F6B3D25642C746FBB
:1044B00074616C3D256C752C636F72726563743D1D
:1044C000256C752C6163633D256C752E2530326C2F
:1044D0007525252C70303D25642E253034642C70D4
:1044E000313D25642E253034642C70323D25642EF8
:1044F000253034640D0A000076697267696E69635D
:10450000610000007365746F7361000076657273FB
:1045100069636F6C6F72000038450008000000206E
:10452000A4070000D4010008B0470008A407002039
:10453000EC11000030020008320132082908290479
:104540005A04045A2004091E20290CE92032105A6A
:104550008004093E60291CE9202918691129070AED
:104560001103405A0C04091E20295CE92029605AD5
:104570006004093EC00922A02910E9205A10041342
:10458000B4054C202406F369F74BA00110290C5AFE
:10459000A40C419AA80C5AAC0C1A083C29441AD015
:1045A000041A980469389AE0445AE40C32029AE8F2
:1045B000445AF00C1A60382948A9848B2402405AC6
:1045C000280C419A2C0C5A300C1AEC4029441A7CC5
:1045D000049A44849A64445A680C29849A6C445A14
:1045E000740C1A0C382948A9849AA8409AAC349AB9
:1045F000B00C5AB40C1A40C029441A28048BF00499
:10460000389AE8449AEC849AF0449AF82419E039EC
:10461000082904D4400404391C1913132C033A202C
:1046200020592809122C391C19131A582C299C813D
:1046300013C0071B20A4041A88189A24181AEC1413
:104640001AD0045AA05C1A84085A900C1A9C081AB2
:10465000A804795CAC1082086E1910110A3D08108C
:10466000CA0310DA0810897D09154029F0091A20BB
:104670000A1918701100081401C0A1C53384CB1D9C
:10468000DECAFAA121112B3C038312011A680832F9
:10469000021AB408BBF80697B9525301041B200252
:1046A000081A10084B54042C5A011C190D391C1AF5
:1046B00030083AE45C211958391C19CC391C1A50BD
:1046C000085A443819B0391C5A601C1A70085A74B8
:1046D0001C190F391C5A801C1A90085A041C5A05C0
:1046E0001C5AA01C1AB0085A641C5A061C5AC01C3A
:1046F0001AD0085A941C5A071C5AE01C1AF0085A7F
:10470000241C6A08E05A01E019085A841C6A09E06E
:10471000591C1A30085AF4E06A0AE0591C1A500869
:104720005A14386A0BE0591C1A70085A341C6A0C67
:10473000E0591C1A90081AD454D40C0103135C06D7
:104740001420F1362C089440A3299F21FC04010277
:10475000241341311B089C242B070122A11A801C21
:104760001A21405AA440DA04205A9C3C3AAC3CE15D
:104770005ABC3C7AB43CE15AD83C1ABC20291B5A9A
:1047800040A069041A2CA7690C1B4004E5B1392C20
:1047900019131314072A201C4B404164413938195E
:1047A0001C1A241C0128296482101324F400000020
:040000050800019955
:00000001FF
